:020000040800F2
:100000008807002019180008D50B0008D70B000836
:10001000DB0B0008DF0B0008E30B0008000000000A
:10002000000000000000000000000000E70B0008D6
:10003000E90B000800000000EB0B0008ED0B0008C6
:100040003318000833180008331800083318000864
:100050003318000833180008331800083318000854
:100060003318000833180008331800083318000844
:100070003318000833180008331800083318000834
:100080003318000833180008331800083318000824
:100090003318000833180008331800083318000814
:1000A0003318000833180008331800083318000804
:1000B00033180008B3140008331800083318000878
:1000C00033180008331800083318000833180008E4
:1000D000331800085938000833180008331800088E
:1000E00033180008331800083318000833180008C4
:1000F00033180008331800083318000833180008B4
:1001000033180008331800083318000833180008A3
:100110003318000833180008331800083318000893
:100120003318000833180008331800083318000883
:1001300000F002F800F03FF80AA090E8000C8244BA
:100140008344AAF10107DA4501D100F034F8AFF297
:10015000090EBAE80F0013F0010F18BFFB1A43F0A5
:10016000010318470048000020480000103A24BF4F
:1001700078C878C1FAD8520724BF30C830C144BF0C
:1001800004680C607047000000230024002500264E
:10019000103A28BF78C1FBD8520728BF30C148BFEA
:1001A0000B607047642903F00184002070471FB57D
:1001B0001FBD10B510BD03F033FD1146FFF7F7FF6B
:1001C00000F079FA03F051FD03B4FFF7F2FF03BC2E
:1001D00003F0DAFA08B50121082003F001FA4FF420
:1001E0008060ADF8000010208DF8030003208DF82A
:1001F00002006946FE4801F025FE08BD10B5FD4825
:10020000006800287ED10A2003F08BFAF9480068C4
:100210000028F7D100BFF74800680028FBD0F64857
:100220000078401CF449087008460078022810DD68
:1002300000200870F1A20021084600F0E3FFF4A2BC
:100240000121002000F0DEFFF4A20121092000F0CE
:10025000D9FFE9480078012825D101F031F8F1A251
:100260000021084600F0CEFFF34800780A2190FBF9
:10027000F1F03030C4B222460121072000F0DBFF4C
:10028000ED4800780A2190FBF1F201FB12003030BA
:10029000C4B222460121082000F0CDFF43220121F3
:1002A000092000F0C8FFD448007802284CD1E3A20E
:1002B0000021084600F0A6FFE5A20121002000F081
:1002C000A1FFE84800884FF47A7190FBF1F00A2111
:1002D00090FBF1F201FB12003030C4B22246012142
:1002E000062000F0A8FFDF480088642190FBF1F0B1
:1002F0000A2190FBF1F201FB12003030C4B2224619
:10030000012100E020E0072000F095FFD54800889B
:100310000A2190FBF1F090FBF1F201FB120030306A
:10032000C4B222460121082000F085FFCD48008894
:100330000A2190FBF1F201FB12003030C4B22246D8
:100340000121092000F077FFAA48001D006800285D
:100350007ED10A2003F0E5F9A648001D00680028B8
:10036000F6D100BFA348001D00680028FAD0A248BB
:100370000078012822D1B0480078632804DAAE481A
:100380000078401CAC490870AB4800780A2190FB0B
:10039000F1F03030C4B222460121072000F04BFFBB
:1003A000A54800780A2190FBF1F201FB12003030E1
:1003B000C4B222460121082000F03DFF8E4800789B
:1003C000022856D1A7480088632804DAA548008887
:1003D000401CA4490880A348008840F6AC518842DC
:1003E00004DAA04800880A309E4908809D480088A9
:1003F0004FF47A7190FBF1F00A2190FBF1F201FBCE
:1004000012003030C4B222460121062000F013FF52
:1004100094480088642190FBF1F00A2190FBF1F2EE
:1004200001FB12003030C4B222460121072000F047
:1004300002FF8C4800880A2190FBF1F090FBF1F25A
:1004400001FB12003030C4B222460121082000E036
:100450000FE000F0F0FE834800880A2190FBF1F2E3
:1004600001FB12003030C4B222460121092000F005
:10047000E2FE60480830006800287DD10A2003F0C1
:1004800050F95C480830006800287CD100BF59480A
:10049000083000680028FAD057480078012822D197
:1004A00065480078002804DD63480078401E6249F2
:1004B0000870614800780A2190FBF1F03030C4B236
:1004C00022460121072000F0B6FE5B4800780A2191
:1004D00090FBF1F201FB12003030C4B22246012140
:1004E000082000F0A8FE4448007802284BD15D485F
:1004F0000088002804DD5B4800880A3859490880D4
:10050000584800884FF47A7190FBF1F00A2190FB73
:10051000F1F201FB12003030C4B222460121062064
:1005200000F089FE4F480088642190FBF1F00A2119
:1005300090FBF1F201FB12003030C4B222460121DF
:10054000072000F078FE474800880A2190FBF1F070
:1005500090FBF1F201FB12003030C4B222460121BF
:10056000082000F068FE3F4800880A2190FBF1F265
:1005700001FB1200303000E005E0C4B22246012148
:10058000092000F058FE10BD2DE9F0471421082085
:1005900000F047FF044604F09FF88246504604F0FE
:1005A0000FF880464FF066322F4B03F015FE0646DB
:1005B00000222E4B03F04CFC044603F063FB2C4955
:1005C00008600846006803F0FBFF0446294A2A4BEE
:1005D00003F002FE064603F055FB25490860084675
:1005E000006803F0EDFF0446244A254B4AE0000072
:1005F000000C0140308121425C00002054656D7088
:10060000657261747572653A202020430000000015
:10061000577274623A2020202000000050483A208F
:10062000200000003D3D3D3D5365742054656D70D4
:100630003D3D3D3D000000001E0000203D3D3D3D94
:1006400053657420577274623D3D3D3D00000000CB
:100650002020202020202030302520202020202075
:10066000000000001C00002066660A400000B04048
:100670002000002007CE1951DADB1740E17A14AED2
:100680004741364003F0A6FE064603F0FBFAFD495B
:100690000860FD49FB48006804F066F8F949086005
:1006A000FA49F848006804F02BF902D2F748F549F6
:1006B0000860BDE8F08788B00020069002F0F4FFE3
:1006C00003F05CF841F61F4142F20F7000F0C4FEE7
:1006D00000F0FEFD00F04CFE00F0C4FC00F0FDFC5C
:1006E00000F0DDFC00F0AAFC00F0F0FEFFF772FD68
:1006F00001F018F809E0E6A20021084600F082FDAA
:10070000E8A20121002000F07DFD00F02CFC002873
:10071000F1D100F047FCAFF21C120021084600F0B6
:1007200071FDAFF214120121002000F06BFDE2A276
:100730000121092000F066FD0121E04802F000F9E6
:1007400033E2FFF75BFD0698411CC9B206916428AD
:10075000F6DBDB4800780028F2D10690D948016822
:100760000068401CD74A10600A2905D900201146AC
:1007700008600120D449087000F014FCD3490880B7
:100780000846B0F9000000280BDA2D2200210C20C9
:1007900000F051FDCD480088404200B2CB490880AE
:1007A00004E0202200210C2000F045FDC748B0F9EC
:1007B0000000642190FBF1F03030C4B222460021E9
:1007C0000C2000F038FDC148B0F90000642190FB16
:1007D000F1F201FB12000A2190FBF1F03030C4B2BB
:1007E000224600210D2000F026FDB848B0F9000097
:1007F000642190FBF1F03030B549C873B348B0F9CB
:100800000000642190FBF1F03030B1490874FFF72B
:10081000BBFE1421092000F004FEAE490860084622
:10082000006803F041FFAC4908600846006803F027
:10083000C7FE80464FF06632A84B03F0CDFC06465B
:10084000A74AA84B03F050FA044603F01BFAA2494A
:1008500008600846006803F0B3FE04460022A24B7D
:1008600003F07EFC03D2A1489B49086030E09A481F
:10087000006803F0A5FE04469D4A9E4B03F0ACFCC5
:10088000CDE902019448006803F09AFE04460D4643
:100890009148006803F094FE0646974A974B03F090
:1008A0009BFC804622462B4603F096FCCDE90001D6
:1008B000DDE9022303F018FA4FF06632904BCDE9E0
:1008C000040103F093FD824603F0DCF982490860DD
:1008D00000218148006803F013FF02D200207E4906
:1008E00008607D48006803F0BFFE80B27949086067
:1008F000084600684FF47A7190FBF1F00A2190FBF2
:10090000F1F201FB12003030C4B222460121052071
:1009100000F091FC6F480068642190FBF1F00A211F
:1009200090FBF1F201FB12003030C4B222460121EB
:10093000062000F080FC674800680A2190FBF1F077
:1009400090FBF1F201FB12003030C4B222460121CB
:10095000072000F070FC5F4800680A2190FBF1F26C
:1009600001FB12003030C4B222460121082000F001
:1009700062FC584800684FF47A7190FBF1F00A214C
:1009800090FBF1F201FB120030305149487151489F
:100990000068642190FBF1F00A2190FBF1F201FB69
:1009A000120030304A4988714A4800680A2190FB99
:1009B000F1F090FBF1F201FB120030304449C871B4
:1009C000444800680A2190FBF1F201FB120030302C
:1009D0003F4908722B48006803F02AFE642190FB0F
:1009E000F1F03030474908602648006803F020FEE7
:1009F000642190FBF1F201FB12000A2190FBF1F05F
:100A00003030414908603F48027801210C2000F055
:100A100012FC3EA201210D2000F0F4FB3A480278BE
:100A200001210E2000F007FC2A4800683849098897
:100A3000884209DA2548B0F900000A2190FBF1F05C
:100A400034490978884206DB01203349086033497C
:100A5000C1F8AC0105E000202F4908602F49C1F81A
:100A6000AC012F48006850B90A2002F05AFE2C4809
:100A7000006820B92B48007810B9012055E05BE0F0
:100A800052E00000200000200000C8420000AF44F7
:100A9000202044533138423230204572726F20207A
:100AA00000000000202020202020202020202020C6
:100AB000202020200000000050483A0000040040A0
:100AC0005C0000203C0000200C00002018000020EA
:100AD00024000020540000204000002066664A3FA9
:100AE00085EB51B81E85FB3F0000044000803B456C
:100AF000CDCCCCCC4C6EB6409A999999998191C045
:100B0000E600B14010000020140000202E0000007C
:100B10001C0000201E000020A00121420080214274
:100B20003C8121425D00002000202049087000BF68
:100B30001F4800680028FBD01C48007818B11D48E9
:100B400000780A2803D1002019496C310860174841
:100B50000078012803D0174800780B2803D1012022
:100B600013496C31086014480068144909688842C8
:100B70001BD11348006813490968884215D1012028
:100B8000114908604FF4FA6002F0CBFD00200F49D4
:100B9000C1F8A00100F0AEFC002007490860084938
:100BA000086001210A4801F0CBFECAE55D00002083
:100BB0003C8121421F00002078000020040000201A
:100BC0007C00002008000020A001214200002142FA
:100BD00000040040704700BFFEE700BFFEE700BF13
:100BE000FEE700BFFEE770477047704770470000A0
:100BF0000CB50020019000906C48006840F48030F3
:100C00006A49086000BF6948006800F4003000903D
:100C10000198401C0190009818B90198B0F5A06F98
:100C2000F1D16248006800F4003010B1012000905A
:100C300001E0002000900098012843D15C48006842
:100C400040F010005A4908600846006820F0030090
:100C500008600846006840F0020008605348406899
:100C6000524948600846406848600846406840F479
:100C7000806048600846406820F47C104860084660
:100C8000406840F4E81048600846006840F0807012
:100C9000086000BF4548006800F000700028F9D0E7
:100CA0004248406820F003004049486008464068D8
:100CB00040F00200486000BF3C48406800F00C0073
:100CC0000828F9D10CBD10B5FFF792FF10BD10B583
:100CD0003648006840F00100344908600846406822
:100CE00034490840314948600846006832490840A4
:100CF0002E4908600846006820F4802008600846F5
:100D0000406820F4FE0048604FF41F008860FFF741
:100D1000DAFF4FF000602949086010BD10B50021CE
:100D200000200022214B5B6803F00C0121B1042953
:100D300006D0082928D107E0214B224C236027E068
:100D40001F4B204C236023E0184B5B6803F47010AA
:100D5000164B5B6803F48032022303EB904022B908
:100D6000194B4343174C23600DE0104B5B6803F4B1
:100D7000003323B1144B4343124C236003E0104B68
:100D80004343104C236003E00D4B0E4C236000BF27
:100D900000BF064B5B68C3F303130C4CE15C094BCB
:100DA0001B68CB40074C236010BD000000100240C0
:100DB000002002400000FFF8FFFFF6FE08ED00E013
:100DC00000127A006000002000093D00640000204D
:100DD00010B59648006820F00F0094490860084656
:100DE000006840F00300086000209149086040F26C
:100DF000EE2002F072FC01208E49C1F8A4010F2000
:100E000002F06BFC10BD10B500248848006820F08B
:100E10000F00864908600846006840F00800086036
:100E200004E0601CC4B2012002F057FC8048803806
:100E3000006808B1C82CF4DBC82C01DB012010BD10
:100E4000002404E0601CC4B2012002F046FC784893
:100E50008038006808B9F02CF4DBF02C01DB0120AD
:100E6000EDE70020EBE710B57048006820F00F00B8
:100E70006E4908600846006840F0030008600020E2
:100E80006B490860022002F028FC01206949C1F882
:100E9000A4016648006820F00F0064490860084615
:100EA000006840F0080008600C2002F016FC604862
:100EB0008038006808B1012400E00024322002F0EC
:100EC0000CFC204610BD70B50026012508E0FFF798
:100ED000CAFF0446E00140EA6600C6B2681CC5B21B
:100EE000082DF4DD304670BD70B504464F480068EB
:100EF00020F00F004D4908600846006840F00300EC
:100F00000860012520E004F0010664106EB10020A5
:100F100047490860022002F0E0FB01204549C1F882
:100F2000A4013C2002F0D9FB0CE0002040490860FD
:100F30003C2002F0D2FB01203E49C1F8A40102206E
:100F400002F0CBFB681CC5B2082DDCDD70BD10B50E
:100F5000FFF73EFFFFF757FFCC20FFF7C5FF442008
:100F6000FFF7C2FF10BD08B50121082002F038FBD1
:100F70004FF40070ADF8000010208DF8030003203E
:100F80008DF8020069462948001F00F05BFF4FF40E
:100F900000712648001F01F002F8FFF719FFFFF764
:100FA00032FF08BD2DE9F84FFFF7D1FFFFF710FF23
:100FB000FFF729FFCC20FFF797FFBE20FFF794FF34
:100FC000FFF781FF8346FFF77EFF0446072C08DD0D
:100FD000E043C4B26FEA0B0000F0FF0B4FF0000AD1
:100FE00001E04FF0010AA1464FEA09200FFA80F90B
:100FF00009EB0B000FFA80F9484603F055FB00900F
:1010000003F0DEFA074600220B4B03F0E5F8054635
:1010100003F076F80FFA80F9BAF1000F02D04846D3
:10102000BDE8F88FC9F1000000B2F9E7040C0140F7
:10103000A4812142008021420000E43F08B5012143
:10104000082002F0CDFA4FF47040ADF800004820BF
:101050008DF8030003208DF8020069462F4800F048
:10106000F1FE08BD08B501210C2002F0B9FA0121FA
:101070002B4800F0B8FF4FF48070ADF8000010204E
:101080008DF8030003208DF802006946254800F022
:10109000D9FE4FF48071234800F083FF08BD08B5E6
:1010A0000121082002F09CFA4FF44060ADF80000E6
:1010B00010208DF8030003208DF8020069461748C0
:1010C00000F0C0FE4FF48061144800F06AFF4FF456
:1010D0000061124800F065FF08BD08B50121042039
:1010E00002F07EFA0121084602F07AFA01210C484A
:1010F00000F079FF4FF40040ADF8000010208DF8AB
:10110000030003208DF802006946064800F09AFEAD
:101110004FF40041034800F044FF08BD000C0140BB
:10112000000230000008014010B5024600210020F6
:1011300000BF0AE042FA01F303F00103C1F1070422
:10114000A3400344D8B24B1CD9B20829F2DB10BD2E
:1011500070B504464FF4005083494861012002F005
:10116000BCFA4FF4804080494861012002F0B5FA92
:101170004FF400407C490861012002F0AEFA7B4840
:1011800000F009FF00F47F462046FFF7CDFF304412
:1011900085B22946754800F00BFF642002F09DFAE5
:1011A0004FF400407049486170BD70B504464FF47B
:1011B00000506D490861012002F08FFA4FF4804021
:1011C00069494861012002F088FA4FF400406649FD
:1011D0000861012002F081FA644800F0DCFE00F4AE
:1011E0007F462046FFF7A0FF304485B229465F487E
:1011F00000F0DEFE642002F070FA4FF400405A491D
:10120000486170BD70B505460E4614462EB905F10D
:101210008001C8B2FFF79CFF04E005F1C001C8B22D
:10122000FFF796FF03E02078FFF7BFFF641C2078EC
:101230000028F8D170BD70B504460D4616462DB98C
:1012400004F18001C8B2FFF783FF04E004F1C0019C
:10125000C8B2FFF77DFF3046FFF7A7FF70BD2DE94D
:10126000FE430746884614461D460C2602E0202011
:101270000DF80600301EA6F10101CEB2F7D10DF82F
:10128000050011E02CB90A20B4FBF0F100FB11407D
:1012900038B10A20B4FBF0F100FB114030300DF8FA
:1012A00005000A20B4FBF0F4281EA5F10101CDB21F
:1012B000E8D16A4641463846FFF7A4FFBDE8FE8301
:1012C00010B50120FFF744FF052002F02AFA10BDF7
:1012D00008B50121142002F083F9FF20ADF80000C9
:1012E00010208DF8030003208DF8020069461F4886
:1012F00000F0A8FD4FF46040ADF8000010208DF81C
:10130000030003208DF802006946174800F09AFD9B
:101310003820FFF71DFF052002F003FA3820FFF701
:1013200017FF052002F0FDF93820FFF711FF052017
:1013300002F0F7F90820FFF70BFF052002F0F1F9A2
:101340000120FFF705FF052002F0EBF90620FFF76B
:10135000FFFE052002F0E5F90C20FFF7F9FE05205D
:1013600002F0DFF908BD0000001001400008014054
:1013700000B587B001214FF4027002F031F94FF44B
:10138000004002F091F80320ADF8040000208DF831
:10139000070001A92E4800F055FD2E4800F0CAFABA
:1013A000002002908DF80C008DF80D004FF46020A5
:1013B00004900020059001208DF8180002A925480E
:1013C00000F0DFFA0121234800F007FB214800F07C
:1013D00026FB00BF1F4800F027FB0028FAD11D485C
:1013E00000F02CFB00BF1B4800F02DFB0028FAD1B9
:1013F00007B000BD10B50446072301222146154859
:1014000000F057FB0121134800F027FB00BF022129
:10141000104800F093FC0028F9D00E4800F0B0FB13
:1014200010BD2DE9F04107460C460025002608E0D6
:101430003846FFF7DFFF0544052002F072F9701C03
:10144000C6B2A642F4DBB5FBF4F080B2BDE8F08191
:10145000000C0140002401407FB505460C460121E7
:10146000022002F0CAF8ADF80850ADF804400020A0
:10147000ADF80A00ADF8060001A9134800F004FF1A
:1014800001221146104801F076FA1D208DF8000067
:1014900000208DF8010003208DF8020001208DF856
:1014A0000300684600F0DDF90021074801F048FA22
:1014B0007FBD10B50121044801F00BFD18B10121D9
:1014C000014801F017FD10BD0004004008B50121DE
:1014D000082002F085F84FF4F070ADF800001020FD
:1014E0008DF8030003208DF8020069464C4800F097
:1014F000A9FC08BD10B500243DE001204949086061
:1015000000204949C1F89801464908310860464918
:10151000C1F8A001032002F004F90020414908604D
:101520000120091D08600020091D08603E49C1F81E
:10153000A001032002F0F5F800203A490860091DD7
:1015400008600120091D086000203749C1F8A0018A
:10155000032002F0E6F8002032490860091D086007
:10156000091D086001203049C1F8A001032002F0E4
:10157000D8F8601C84B2642CBFDB10BD10B5002409
:101580003DE00020274908602749C1F89801254916
:101590000831086001202449C1F8A001032002F0AD
:1015A000C0F800201F490860091D08600120091DBE
:1015B000086000201C49C1F8A001032002F0B1F826
:1015C0000020184908600120091D08600020091D3D
:1015D00008601549C1F8A001032002F0A2F801201B
:1015E000104908600020091D0860091D08600E49A7
:1015F000C1F8A001032002F094F8601C84B2642CAE
:10160000BFDB10BD0020074908600749C1F89801F9
:101610000449083108600449C1F8A001704700007E
:10162000000C0140948121420080214210B58021AC
:10163000584802F032FA00205749086010BD564859
:10164000006808B901207047534800685349098869
:10165000884203D1002050490860F4E74E480088D2
:101660004E4908800120EEE72DE9F04105460E467F
:101670001446284602F0F2F9C7B23946284602F06D
:101680001CF90FE0FFF7DBFF48B93146414802F093
:10169000D3F920B1FFF7CAFF0020BDE8F081012097
:1016A00002F03FF8201EA4F101018CB2EAD1012022
:1016B000F3E730B589B005460C46FFF7B7FF224681
:1016C00037A101A802F02AF9C8223AA101A8FFF720
:1016D000CBFF18B9E1B2284602F0EFF809B030BDEF
:1016E00070B50546002400BFFFF7A9FF80B932A1FD
:1016F000284802F0A1F9044654B13A21204602F0EC
:1017000091F9044614B1641C204670BD0020FCE72A
:10171000012002F006F8281EA5F101018DB2E3D1E7
:1017200000BFF2E710B54FF4E13002F03CF8FFF7EC
:101730007DFF03E04FF4FA7001F0F3FFC82220A10F
:1017400020A0FFF791FF0028F4D103E04FF4FA70D6
:1017500001F0E7FFC8221AA11CA0FFF785FF0028AF
:10176000F4D103E04FF4FA7001F0DBFFC82214A1BA
:101770001AA0FFF779FF0028F4D103E04FF4FA70C4
:1017800001F0CFFFC8220EA11FA0FFF76DFF0028B8
:10179000F4D110BDA40000209C0000208000002097
:1017A00041542B43495053454E443D302C25640D44
:1017B0000A0000003E0000004950442C00000000D8
:1017C0004F4B000041540D0A0D00000041542B43C3
:1017D000574D4F44453D320D0A00000041542B4304
:1017E000575341503D22455350383236365F5749A2
:1017F0004649222C223132333435363738222C35C3
:101800002C330D0A0000000041542B4349504D5524
:10181000583D310D0A00000009488047094800473B
:10182000FEE7FEE7FEE7FEE7FEE7FEE7FEE7FEE790
:10183000FEE7FEE704480549054A064B70470000ED
:10184000CF0C000831010008880100208807002023
:10185000880300208803002031490143314A116088
:10186000704770B5002100230F22C47804B32D4CBB
:10187000246804F4E064C4F5E064210AC1F10403BF
:10188000CA40447804FA03F18478144021430901E2
:10189000254C0678A155047804F01F050124AC40BE
:1018A00005786D11AD0005F1E025C5F8004109E0AE
:1018B000047804F01F050124AC401C4D0678761115
:1018C00045F8264070BD1A4A0A400243154B1B1FBB
:1018D0001A60704739B1134A121D12680243114B46
:1018E0001B1D1A6006E00F4A121D126882430D4B41
:1018F0001B1D1A607047042808D14FF0E0210969C8
:1019000041F004014FF0E022116107E04FF0E021C7
:10191000096921F004014FF0E022116170470000D5
:101920000000FA050CED00E000E400E080E100E0DA
:1019300080FFFF1F10B50446FA48844208D10121F8
:10194000401501F067FE0021601501F063FE17E00D
:10195000F548844208D10121001501F05BFE002109
:10196000201501F057FE0BE0F048844208D1012118
:10197000C80301F04FFE00214FF4004001F04AFE81
:1019800010BD30B50246002000235068E84C2040CE
:101990000D790C6844EA0524204350609068E54CBA
:1019A0002040D1E902542C434D7944EA45042043B8
:1019B0009060D06A20F470000C7C641EE4B2234373
:1019C00040EA0350D06230BD0021016001714171D5
:1019D0008160C16001210174704721B1826842F0C9
:1019E0000102826003E0826822F001028260704797
:1019F00021B1826842F48072826003E0826822F43E
:101A000080728260704710B50023CBB21AB144686F
:101A10001C43446002E044689C43446010BD8168FC
:101A200041F0080181607047014600208A6802F099
:101A300008020AB1012000E000207047816841F0EF
:101A4000040181607047014600208A6802F00402A8
:101A50000AB1012000E00020704721B1826842F401
:101A6000A002826003E0826822F4A00282607047D4
:101A7000014600208A6802F480020AB1012000E0D9
:101A80000020704710B50A4600210023416821F468
:101A90006041531E41EA4331416010BD21B14268AB
:101AA00042F40062426003E0426822F40062426055
:101AB0007047F0B504460D4600200021092D11DDC8
:101AC000E068A5F10A0606EB4607072606FA07F1C5
:101AD0008843A5F10A0606EB460603FA06F1084319
:101AE000E0600CE0206905EB4507072606FA07F1E0
:101AF000884305EB450603FA06F108432061072AEF
:101B00000FDA606B561E06EB86071F2606FA07F1F2
:101B10008843561E06EB860605FA06F10843606305
:101B200022E00D2A0FDA206BD61F06EB86071F2650
:101B300006FA07F18843D61F06EB860605FA06F17A
:101B40000843206310E0E06AA2F10D0606EB860769
:101B50001F2606FA07F18843A2F10D0606EB86065A
:101B600005FA06F10843E062F0BD21B1826842F453
:101B70008012826003E0826822F4801282607047E3
:101B80000146C86C80B2704766484C3000687047A8
:101B900021B1426842F48062426003E0426822F46C
:101BA00080624260704721B1426842F480524260D4
:101BB00003E0426822F48052426070470A460021E6
:101BC000816821F4E04111438160704721B182684E
:101BD00042F40042826003E0826822F400428260A4
:101BE000704721B1826842F40212826003E0826889
:101BF00022F4021282607047014600208A6802F4D3
:101C000000120AB1012000E000207047F0B5044640
:101C10001546002000220026092911DDE068A1F107
:101C20000A0707EB470C072707FA0CF29043A1F1CC
:101C30000A0707EB470703FA07F21043E0600CE0DE
:101C4000206901EB410C072707FA0CF2904301EBE6
:101C5000410703FA07F210432061A06BC0F301565D
:101C6000EF1C06F1010CA7EB0C0707EB870C1F27F5
:101C700007FA0CF29043EF1C06F1010CA7EB0C07DE
:101C800007EB870701FA07F21043A063F0BD10B518
:101C90000A4600210023816B21F44011531E41EAC2
:101CA0000351816310BD08B5002300930090009B91
:101CB0000B440093009B1A6008BD08B50246002043
:101CC0000090009201F12800009B184400900098B9
:101CD000006880B208BD0A4600214168164B1940D1
:101CE0001143416070474162826270470A46002199
:101CF000416821F01F0111434160704740B109491B
:101D00000831096841F40001064A0832116007E011
:101D100004490831096821F40001024A08321160BF
:101D2000704700000024014000280140003C0140B1
:101D3000FFFEF0FFFDF7F1FFFFFD3FFF0246002031
:101D400013680B400BB1012000E000207047CA432C
:101D50000260704770B502460020002300240B1279
:101D60005568CEB205EA060415681D4015B10CB1E0
:101D7000012000E0002070BD00220A12D34303605E
:101D80007047000010B50446CC48844208D10121B8
:101D9000042001F03FFC0021042001F03BFC46E060
:101DA000C748844208D10121082001F033FC0021FA
:101DB000082001F02FFC3AE0C248844208D10121FA
:101DC000102001F027FC0021102001F023FC2EE060
:101DD000BD48844208D10121202001F01BFC0021D4
:101DE000202001F017FC22E0B848844208D10121EC
:101DF000402001F00FFC0021402001F00BFC16E018
:101E0000B348844208D10121802001F003FC002165
:101E1000802001F0FFFB0AE0AE48844207D1012197
:101E2000801501F0F7FB0021A01501F0F3FB10BDB8
:101E300010B50121084601F0EDFB0021012001F061
:101E4000E9FB10BD2DE9F0410246002500260020E7
:101E500000230024002791F803C00CF00F0591F82F
:101E600003C00CF0100CBCF1000F03D091F802C0BD
:101E70004CEA050591F800C0BCF1000F31D01468A0
:101E800000202BE04FF0010C0CFA00F3B1F800C079
:101E90000CEA03069E4220D183004FF00F0C0CFA8F
:101EA00003F7BC4305FA03FC4CEA040491F803C0B1
:101EB000BCF1280F06D14FF0010C0CFA00FCC2F85F
:101EC00014C00AE091F803C0BCF1480F05D14FF0EF
:101ED000010C0CFA00FCC2F810C0401C0828D1D339
:101EE0001460B1F800C0BCF1FF0F34DD546800206D
:101EF0002EE000F1080C4FF0010808FA0CF3B1F8DD
:101F000000C00CEA03069E4221D183004FF00F0C63
:101F10000CFA03F7BC4305FA03FC4CEA040491F8FD
:101F200003C0BCF1280F05D100F1080C08FA0CF829
:101F3000C2F8148091F803C0BCF1480F07D100F13A
:101F4000080C4FF0010808FA0CF8C2F81080401C89
:101F50000828CED35460BDE8F0814FF6FF710180B0
:101F6000022181700421C1707047024600209368ED
:101F70000B400BB1012000E000207047014688684B
:101F800080B2704702460020D3680B400BB101209D
:101F900000E0002070470146C86880B270470161C8
:101FA0007047416170470AB1016100E041617047CB
:101FB000C16070474FF480320A438261816182615F
:101FC00082698269704702460020434B18684FF6C9
:101FD0008073184040EA021008433F4B1860704776
:101FE0003E49C8617047F0B50A460023002400212D
:101FF000002500F00046B6F1004F02D1364EF169DF
:1020000001E0354E7168C0F3034583B200F4401619
:10201000B6F5401F08D121F070612F4E766826F08A
:1020200070662D4F7E6012E000F48016B6F5801FBA
:1020300006D1032606FA05F4A14341F0706106E0DB
:10204000460D360103FA06F6B14341F0706122B144
:10205000460D360103FA06F6314300F00046B6F1AC
:10206000004F02D11C4EF16101E01B4E7160F0BDCA
:1020700030B500228B071C0F0F2303FA04F2164B16
:1020800008338C1053F824309343134C08348D10CC
:1020900044F8253023468C1053F824308C07240F45
:1020A00000FA04F423430C4C08348D1044F8253016
:1020B00030BD0A49DC31086070470000000801406B
:1020C000000C0140001001400014014000180140C4
:1020D000001C01400020014000000140000020429F
:1020E00010B50446FE48844208D10121C01401F015
:1020F00091FA0021E01401F08DFAC4E0B4F1804FB0
:1021000008D10121084601F092FA0021012001F0D6
:102110008EFAB8E0F348844208D10121022001F090
:1021200086FA0021022001F082FAACE0EE488442F7
:1021300008D10121042001F07AFA0021042001F0E5
:1021400076FAA0E0E948844208D10121082001F094
:102150006EFA0021082001F06AFA94E0E448844213
:1021600008D10121102001F062FA0021102001F0B5
:102170005EFA88E0DF48844208D10121202001F086
:1021800056FA0021202001F052FA7CE0DA4884421D
:1021900008D10121401401F03DFA0021601401F042
:1021A00039FA70E0D548844209D10121C80401F010
:1021B00031FA00214FF4002001F02CFA63E0D048FE
:1021C000844209D10121080501F024FA00214FF4CD
:1021D000801001F01FFA56E0CA48844209D101215B
:1021E000480501F017FA00214FF4001001F012FA2F
:1021F00049E0C548844208D10121402001F017FA86
:102200000021402001F013FA3DE0C048844208D18B
:102210000121802001F00BFA0021802001F007FA53
:1022200031E0BB48844208D10121801501F0FFF95B
:102230000021A01501F0FBF925E0B648844209D140
:102240000121080401F0E6F900214FF4803001F08B
:10225000E1F918E0B048844209D10121480401F0B5
:10226000D9F900214FF4003001F0D4F90BE0AB486C
:10227000844208D10121880401F0CCF900214FF4F7
:10228000802001F0C7F910BD00220288944B9842CB
:102290000ED0994B98420BD0B0F1804F08D0914BA3
:1022A000984205D0904B984202D0904B984204D16E
:1022B0004FF68F731A404B881A438D4B984207D0C4
:1022C0008C4B984204D04FF6FF431A40CB881A43F8
:1022D00002808B8883850B880385814B98420BD0C5
:1022E000854B984208D08B4B984205D08A4B984238
:1022F00002D08A4B984201D10B7A03860123838254
:10230000704770B5002400220023058C4FF6FE763E
:1023100035400584028C8388048B4FF68F752C40E2
:10232000B51E2C400D882C43751E2A400D892A436A
:102330004D882A436A4DA8420BD06F4DA84208D061
:10234000744DA84205D0744DA84202D0734DA842E6
:1023500013D14FF6F7752A404D892A434FF6FB7586
:102360002A408D882A434FF6FF652B404FF6FF55D4
:102370002B408D892B43CD892B4383800483CD88CB
:102380008586028470BD70B5002400220023058C70
:102390004FF6EF7635400584028C8388048B48F62F
:1023A000FF752C404FF6FF452C400D884FF6FF7609
:1023B00006EA05252C434FF6DF752A400D8906EA0B
:1023C00005152A434D8806EA05152A43444DA842BF
:1023D00002D0494DA8421DD14FF67F752A404D8944
:1023E0004FF6FF7606EA05152A434FF6BF752A40D9
:1023F0008D8806EA05152A434FF6FF352B404FF22C
:10240000FF752B408D8906EA85052B43CD8906EAA9
:1024100085052B4383800483CD880587028470BDA6
:1024200070B5002400220023058C4FF6FF6635406E
:102430000584028C8388848B4FF68F752C404FF671
:10244000FC752C400D882C434FF6FF552A400D8912
:102450004FF6FF7606EA05252A434D8806EA05254C
:102460002A431F4DA84202D0234DA8421DD14FF24E
:10247000FF752A404D894FF6FF7606EA05252A4367
:102480004FF6FF352A408D8806EA05252A434EF689
:10249000FF752B404DF6FF752B408D8906EA05151B
:1024A0002B43CD8906EA05152B4383808483CD8891
:1024B0008587028470BD70B5002200230024058C3E
:1024C0004EF6FF7635400584038C8488828B48F66F
:1024D000FF752A404FF6FF452A400D8820E0000096
:1024E000002C01400004004000080040000C0040A7
:1024F000001000400014004000340140004C014036
:10250000005001400054014000180040001C0040F1
:1025100000200040004001400044014000480140CC
:102520004FF6FF7606EA05252A434DF6FF752B4048
:102530000D8906EA05352B434D8806EA05352B4300
:10254000FA4DA84202D0FA4DA84208D14BF6FF75C9
:102550002C408D894FF6FF7606EA85152C43848042
:102560008283CD88A0F84050038470BD828B4FF2E7
:10257000FF331A408283828B4FF6FF7303EA0123F5
:102580001A4382837047F0B50C461546002200219D
:102590000026078C4EF6FF7C07EA0C070784828B27
:1025A000018C4FF6FF7707EA043640F6FF473A40C2
:1025B0004FF6FF7707EA05273A434FF6FF7707EA1A
:1025C00003373A43D94FB8420ED0D94FB8420BD057
:1025D000B0F1804F08D0D74FB84205D0D64FB8429F
:1025E00002D0D64FB84206D14DF6FF77394046F4B7
:1025F0008057394305E047F6FF57394044F4805788
:10260000394382830184F0BD828B4FF6F3731A4005
:102610008283828B0A4382837047F0B50C4615464D
:10262000002200210026078C4FF6FF6C07EA0C07FA
:102630000784828B018C4FF6FF7707EA04264FF65A
:102640000C773A404FF6FF7707EA03172F433A43D8
:10265000B64FB8420ED0B64FB8420BD0B0F1804F53
:1026600008D0B44FB84205D0B34FB84202D0B34FF0
:10267000B84206D14FF6FF57394046F480773943C8
:1026800005E04FF2FF57394044F4807739438283A5
:102690000184F0BD028B4FF2FF331A400283028B9C
:1026A0004FF6FF7303EA01231A4302837047F0B524
:1026B0000C461546002200210026078C4FF6EF7CC1
:1026C00007EA0C070784028B018C4FF6FF7707EAB5
:1026D000041640F6FF473A404FF6FF7707EA033704
:1026E0003A434FF6FF7707EA05273A438F4FB84240
:1026F0000ED08F4FB8420BD0B0F1804F08D08D4F25
:10270000B84205D08C4FB84202D08C4FB84206D1A7
:102710004FF6DF77394046F01007394305E04FF6B2
:102720005F77394044F01007394302830184F0BDDC
:10273000028B4FF6F3731A400283028B0A43028323
:102740007047F0B50C46154600220021068C4FF666
:10275000FE773E400684028B018C4FF60C763240A9
:102760007E1C06EA03162E433243704EB0420ED052
:102770006F4EB0420BD0B0F1804F08D06D4EB042DA
:1027800005D06D4EB04202D06C4EB04206D14FF62D
:10279000FD76314044F00106314305E04FF6F57611
:1027A000314044F00106314302830184F0BD70B52D
:1027B00005460C465D4885420ED05D4885420BD0EB
:1027C000B5F1804F08D05B48854205D05A48854214
:1027D00002D05A48854200D100E000BF208850B99D
:1027E0002389A28861882846FFF7ABFFE188284645
:1027F000FFF79EFF25E0208804280AD12389A288BC
:1028000061882846FFF753FFE1882846FFF742FF1B
:1028100017E0208808280AD12389A28861882846E1
:10282000FFF7FBFEE1882846FFF7EEFE09E023896B
:10283000A28861882846FFF7A6FEE1882846FFF7B0
:1028400095FE70BD2DE9F04105460C460026012796
:10285000608808B9022600E00026A088012801D17E
:10286000022700E001272088A0B92389A288618877
:102870002846FFF766FFE1882846FFF759FF2389BE
:102880003A4631462846FFF712FFE1882846FFF70F
:1028900001FF13E02389A28861882846FFF707FF1C
:1028A000E1882846FFF7F6FE23893A463146284656
:1028B000FFF747FFE1882846FFF73AFFBDE8F081C0
:1028C0000A884B881A438B881A43CB881A430B8992
:1028D0001A434B891A438B891A43A0F84420704746
:1028E0004FF6FF71818000210180C180418001721B
:1028F00070470021018041808180C1800181418138
:102900008181C18170470021018041800121818046
:102910000021C180018170470021018041808180B8
:10292000C18001814181818170470000002C0140FC
:10293000003401400004004000080040000C00404A
:1029400021B1028842F00102028004E002884FF6C1
:10295000FE731A400280704731B1B0F8442042F44F
:102960000042A0F8442005E0B0F84420C2F30E0273
:10297000A0F8442070471AB183890B43838102E099
:1029800083898B43838170478182704741EA0203C8
:10299000A0F8483070471AB183890B43838102E065
:1029A00083898B438381704701894FF6F872114008
:1029B000018170470A46002101894FF68F73194043
:1029C00011430181704730B504460D462946204623
:1029D000FFF7F0FF208940F00700208130BD2DE98E
:1029E000F04104460D4616461F46602D06D13B4673
:1029F000012231462046FFF75AFE05E03B46012200
:102A000031462046FFF79DFE29462046FFF7D2FFBC
:102A1000208940F007002081BDE8F08130B50C46E8
:102A200000210189C9B24FF6FF7505EA0325154358
:102A300025432943018130BD2DE9F04105460E466D
:102A400017469846002443463A4631462846FFF743
:102A5000E5FF2C894FF6F870044044F007044FF668
:102A60008F70044044F070042C81BDE8F081F0B513
:102A700004460D4616461F463B463246294620462A
:102A8000FFF7CCFF208940F480402081F0BD018514
:102A9000828270470A46002101884FF68F731940E1
:102AA000114301807047F0B50C4615461E460021C3
:102AB000002200230189028B038C4FF6F8773940FE
:102AC00021434FF6FC473A4040F201173A434FF694
:102AD000DD773B404FF6FF7707EA06172F433B436E
:102AE000018102830384F0BD0A460021018B4FF669
:102AF0008F7319401143018370470A460021018BEF
:102B000048F6FF7319404FF6FF7303EA0223194397
:102B1000018370470A460021818B4FF68F7319405D
:102B20001143818370470A460021818B48F6FF7369
:102B300019404FF6FF7303EA02231943818370475C
:102B400021B1028842F08002028004E002884FF640
:102B50007F731A400280704721B1828842F00402DC
:102B6000828004E082884FF6FB731A4082807047AF
:102B700021B1828842F00802828004E082884FF608
:102B8000F7731A408280704721B1828842F00102B7
:102B9000828004E082884FF6FE731A40828070477C
:102BA0000A460021018B4FF6F77319401143018348
:102BB00070470A460021018B4FF2FF7319404FF610
:102BC000FF7303EA02231943018370470A46002179
:102BD000818B4FF6F77319401143818370470A4682
:102BE0000021818B4FF2FF7319404FF6FF7303EA08
:102BF00002231943818370470A460021018B4FF657
:102C0000FB7319401143018370470A460021018B71
:102C10004FF6FF3319404FF6FF7303EA02231943BF
:102C2000018370470A460021818B4FF6FB731940E0
:102C30001143818370470A460021818B4FF6FF3391
:102C400019404FF6FF7303EA02231943818370474B
:102C50000A460021018B4FF67F731940114301830F
:102C600070470A460021018BC1F30E014FF6FF7336
:102C700003EA02231943018370470A460021818B2E
:102C80004FF67F7319401143818370470A46002134
:102C9000818BC1F30E014FF6FF7303EA0223194340
:102CA000818370470A460021018C4FF6FD7319405D
:102CB0001143018470470A460021018C4FF6F773D7
:102CC00019401143018470470A460021018C4FF6D8
:102CD000DF7319404FF6FF7303EA021319430184AF
:102CE00070470A460021018C4FF67F7319404FF65A
:102CF000FF7303EA02131943018470470A46002157
:102D0000018C4FF6FF5319404FF6FF7303EA02237D
:102D10001943018470470A460021018C4FF2FF736A
:102D200019404FF6FF7303EA0223194301847047E9
:102D30000A460021018C4DF6FF7319404FF6FF73D0
:102D400003EA023319430184704730B5002301249C
:102D50008C40A3B2048C9C430484048C02FA01F5D9
:102D6000ADB22C43048430BD30B5002304248C4024
:102D7000A3B2048C9C430484048C02FA01F5ADB226
:102D80002C43048430BD70B503460020002418464F
:102D9000183001258D40ACB21D8CA5431D8409B1AE
:102DA000082909D100EB6100056825F07005056070
:102DB0000568154305600EE00D1FC5F34E05284458
:102DC000056825F4E045056005684FF6FF7606EADC
:102DD00002263543056070BD21B1028842F002022F
:102DE000028004E002884FF6FD731A4002807047AB
:102DF00021B1028842F00402028004E002884FF60A
:102E0000FB731A400280704721B1828842F0800231
:102E1000828004E082884FF67F731A408280704778
:102E200002884FF6F7731A40028002880A43028034
:102E3000704782884FF68F731A40828082880A43D7
:102E40008280704702894FF6F8731A400281028926
:102E50000A430281704702894FF67F731A4002814C
:102E600002890A43028170478184704781857047D7
:102E7000818670470187704781877047A0F84010AE
:102E8000704702884FF6FF431A40028002880A43C7
:102E9000028070470146888E70470146088F704750
:102EA0000146888F70470146B1F8400070470146DF
:102EB000888C70470146088D704702460020138AAF
:102EC0000B400BB1012000E000207047CA43028292
:102ED000704730B50246002000230024158A05EA19
:102EE0000103958905EA010413B10CB1012000E04A
:102EF000002030BDCA4302827047000010B504466E
:102F0000FB48844209D10121880300F083FB0021A2
:102F10004FF4804000F07EFB32E0F648844209D155
:102F20000121480400F083FB00214FF4003000F041
:102F30007EFB25E0F048844209D10121880400F09D
:102F400076FB00214FF4802000F071FB18E0EB4885
:102F5000844209D10121C80400F069FB00214FF42B
:102F6000002000F064FB0BE0E548844208D1012119
:102F7000080500F05CFB00214FF4801000F057FBC7
:102F800010BD2DE9F04786B005460E460024A24646
:102F900000BFA1460027B08900B100BF2F462C8A90
:102FA0004CF6FF700440F08804432C82AC894EF646
:102FB000F3100440B0883189084371890843044301
:102FC000AC81AC8A4FF6FF400440B0890443AC8228
:102FD00001A800F098FAC648874202D1DDF810A097
:102FE00001E0DDF80CA0A88900F4004040B10AEB34
:102FF000CA0000EB0A1031684900B0FBF1F807E0A5
:103000000AEBCA0000EB0A1031688900B0FBF1F846
:103010006420B8FBF0F004012009642101FB108951
:10302000A88900F4004040B1322000EBC900B0FB99
:10303000F1F000F00700044308E0322000EB091033
:103040006421B0FBF1F000F00F0004432C8106B0C6
:10305000BDE8F0874FF41651016000218180C180E6
:1030600001810C21418100218181704710B5024608
:103070000020108A4FF2FF0318400B884C8823432E
:103080008C882343CC8823431843108210BD002131
:10309000018041808180C180704721B1828942F4E2
:1030A0000052828104E082894DF6FF731A408281CA
:1030B0007047F0B50346002400260025002040F6A6
:1030C0006A17B94200D100BF1846C1F3421401F09B
:1030D0001F06012707FA06F5012C01D10C3004E088
:1030E000022C01D1103000E014301AB107682F43D0
:1030F000076002E00768AF430760F0BD1AB1838A3A
:103100000B43838202E0838A8B4383827047028A67
:103110004FF6F0731A400282028A0A430282704715
:1031200082894FF2FF731A40828182890A43828129
:10313000704721B1828942F00202828104E08289D3
:103140004FF6FD731A4082817047028A4FF6DF7393
:103150001A400282028A0A430282704721B1028A1F
:1031600042F48042028204E0028A4BF6FF731A4066
:1031700002827047C1F30802828070470146888846
:10318000C0F308007047818941F0010181817047D7
:10319000028BD2B20283028B42EA01220283704781
:1031A000028B02F47F420283028B0A430283704740
:1031B00021B1828A42F02002828204E0828A4FF6A4
:1031C000DF731A408282704721B1828A42F0100276
:1031D000828204E0828A4FF6EF731A40828270473F
:1031E00021B1828A42F00802828204E0828A4FF68C
:1031F000F7731A408282704721B1828942F40042FB
:10320000828103E08289C2F30E028281704721B17C
:10321000828A42F40062828204E0828A4FF2FF7363
:103220001A4082827047828A4FF6FB731A4082826C
:10323000828A0A438282704721B1828A42F0020266
:10324000828204E0828A4FF6FD731A4082827047C0
:1032500002460020B1F5007F00D100BF13880B406B
:103260000BB1012000E00020704701F40072B2F5BC
:10327000007F00D100BFCA430280704770B502468C
:10328000002400230025002040F66A16B14200D138
:1032900000BFC1F3421501F01F03012606FA03F334
:1032A000012D02D19689334006E0022D02D1168A03
:1032B000334001E0968A33400C12012606FA04F4EA
:1032C0001688344013B10CB1012000E0002070BD1D
:1032D00010B50022002340F66A14A14200D100BFBD
:1032E0000A1201249440A3B2DC43048010BD000004
:1032F000003801400044004000480040004C0040BD
:1033000000500040DF48006840F00100DD490860DF
:1033100008464068DC490840DA49486008460068C9
:10332000DA490840D74908600846006820F4802040
:1033300008600846406820F4FE0048604FF41F0013
:1033400088607047CF49096821F48031CD4A116007
:103350001146096821F480211160B0F5803F03D047
:10336000B0F5802F0ED106E0C649096841F48031DE
:10337000C44A116007E0C349096841F4A021C14A69
:10338000116000E000BF00BF704710B50146002289
:10339000002300204A11012A02D1BA4C236806E01A
:1033A000022A02D1B74C236A01E0B64C636A01F0ED
:1033B0001F02012494401C400CB1012000E00020B9
:1033C00010BD38B5002000900024002500BF31203A
:1033D000FFF7DBFF05460098401C00900098B0F511
:1033E000A06F01D0002DF2D03120FFF7CEFF08B141
:1033F000012400E00024204638BD01460020A14AF7
:10340000106820F0F80040EAC10010607047A04941
:1034100008607047024600209A4B586820F47C10E0
:1034200042EA01031843974B586070479849086671
:10343000704701460020934A506820F0030008437B
:10344000506070478F48406800F00C00704701469C
:1034500000208C4A506820F0F0000843506070470C
:1034600001460020874A506820F4E060084350601D
:10347000704701460020834A506820F4605040EABB
:10348000C1005060704729B17E4A527A02437D4B99
:103490005A7204E07B4A527A82437A4B5A727047DE
:1034A0007B49D8310860704701460020754A506852
:1034B00020F440400843506070470021714A203298
:1034C0001170704A82F82010012802D004280AD115
:1034D00004E001216B4A2032117005E00521694AA0
:1034E0002032117000E000BF00BF704769490860DA
:1034F00070476449096A0143624A1162704765492D
:1035000044390860704730B50021002200240023B0
:103510005C4D6D6805F00C0121B1042905D0082926
:1035200023D105E05C4D056022E05B4D05601FE0A6
:10353000544D6D6805F47012524D6D6805F4803479
:10354000022505EB92421CB9544D554305600BE032
:103550004C4D6D6805F400351DB1504D5543056067
:1035600002E04D4D5543056002E04B4D056000BF44
:1035700000BF444D6D6805F0F0010909484D6B5CD2
:103580000568DD4045603F4D6D6805F4E061090A5E
:10359000434D6B5C4568DD4085603A4D6D6805F4D0
:1035A0006051C90A3E4D6B5C4568DD40C560354DD4
:1035B0006D6805F44041890B3A4D6B5CC568B5FBFD
:1035C000F3F5056130BD29B12E4A526902432D4BF6
:1035D0005A6104E02B4A526982432A4B5A61704770
:1035E00029B1284A92690243264B9A6104E0254A90
:1035F00092698243234B9A61704729B1214AD2696B
:103600000243204BDA6104E01E4AD26982431D4B1B
:10361000DA61704729B11B4AD2680243194BDA605C
:1036200004E0184AD2688243164BDA60704729B129
:10363000144A12690243134B1A6104E0114A1269D9
:103640008243104B1A617047124940390860704735
:103650000F49C86470470B49C87170470948406AF0
:1036600040F0807007494862704701460020054AD3
:1036700092680A400AB1012000E000207047014929
:1036800088727047001002400000FFF8FFFFF6FE4E
:10369000000042428004424200127A0000093D00CC
:1036A000820000209200002010B56FF00400FEF7A9
:1036B00022F92E4800682E49B0FBF1F02D49087020
:1036C0000846007800EB4001C1EBC0104FF6FF71D7
:1036D00001EAC0002849088010BD0146254A127839
:1036E0004A434FF0E0235A6100229A611A46126958
:1036F00042F001021A6100BF4FF0E022106900F0B1
:1037000001021AB100F48032002AF5D04FF0E02215
:10371000126922F001024FF0E0231A6100229A613F
:1037200070470146144A12884A434FF0E0235A6119
:1037300000229A611A46126942F001021A6100BF22
:103740004FF0E022106900F001021AB100F480325B
:10375000002AF5D04FF0E022126922F001024FF06A
:10376000E0231A6100229A61704700006000002087
:1037700000127A00960000209800002010B54FF447
:10378000A060FEF769F810BD014600BF704700BF9A
:103790005D4A128802F04002002AF9D0C2B25A4BA8
:1037A0001B1D1A80704710B586B00446012144F2F3
:1037B0000500FFF715FF5448FFF7A0FB4FF400701A
:1037C000ADF8140003208DF8160018208DF81700AE
:1037D00005A94E48FEF736FB4FF48060ADF81400A3
:1037E00004208DF8170005A94848FEF72BFB25207B
:1037F0008DF8000000208DF8010001208DF80200F6
:103800008DF803006846FEF72CF801940020ADF80F
:103810000800ADF80A00ADF80C00ADF810000C205F
:10382000ADF80E0001A93848FFF7ABFB01A93648F7
:10383000FFF7A7FB012240F225513348FFF739FC7F
:10384000002240F224413048FFF733FC01212E488A
:10385000FFF723FC06B010BD10B540F225512A48F1
:10386000FFF70CFD90B12A480068802802D30020A1
:10387000274908602448FFF781FCC1B22448026848
:103880000068401C224B18602248815440F22551A8
:103890001D48FFF71DFD10BD0BE000BF1A49098848
:1038A00001F040010029F9D00178174A121D11805A
:1038B000401C01780029F0D17047FF2912D00BE09D
:1038C00000BF114A128802F04002002AF9D00278A3
:1038D0000D4B1B1D1A80401C0A1EA1F10103D9B219
:1038E000EED10FE00BE000BF074A128802F0400261
:1038F000002AF9D00278044B1B1D1A80401C027864
:10390000002AF0D170470000003801400008014053
:103910009C000020A4000020704700000FB41CB5DC
:10392000074B06AA7B4469460090059800F039F9D8
:103930000020694600F048F91CBC5DF814FB00004B
:10394000A10200002DE9F0410E460446002020624D
:103950002046E168884730B3252805D0D4E9012105
:103960009047206A401CF2E7E1682046002788471C
:10397000050018D0A5F14100192802D820354FF4D0
:1039800000673246294620462760FCF70BFC40B111
:10399000012804D0F61D26F007060836D8E7361DA4
:1039A000D6E72846DAE7206ABDE8F0812DE9F04144
:1039B0000646002410687529314616A510D0AFF3CD
:1039C0000080002802DA404213A507E031688A0728
:1039D00001D512A502E0490704D511A5012401E093
:1039E000AFF3008000210A2206F1240709E0B0FBB2
:1039F000F2FCB0FBF2F302FB1C00303078541846A6
:103A0000491C0028F3D123462A463046BDE8F04140
:103A100000F069B8000000002D0000002B0000003D
:103A200020000000401ECAB210F8011F8A4202D0D6
:103A30000029F9D10020704730B505460B462A46CB
:103A400013F8014B12F8010B08B1A042F8D01CB1D9
:103A5000002802D06D1CF1E7284630BD10B5431C8C
:103A600002E010F8011B71B18107FAD14FF0013269
:103A700002C88C1A8C4314EAC211F9D0C01A0A0683
:103A800003D0C01E10BDC01A10BD0A0401D0801E94
:103A900010BD0902FCD0401E10BD4FF000020429E9
:103AA000C0F0128010F0030C00F09580CCF1040CF3
:103AB000BCF1020F18BF00F8012BA8BF20F8022BA1
:103AC000A1EB0C0100F087B85FEAC17C24BF00F8CD
:103AD000012B00F8012B48BF00F8012B70477047FD
:103AE0007047704770472DE9F0470D46994692465A
:103AF000044600F124080168880604D5E06921F035
:103B00001001216000E00120A84201DD471B00E018
:103B10000027A1697A1902EB0900081AA061207830
:103B2000C00602D42046AFF30080002608E0D4E9A6
:103B300001211AF806009047206A401C761C20627A
:103B40004E45F4DB2078C0060AD52046AFF300804E
:103B500006E0D4E9012130209047206A401C206211
:103B6000381EA7F10107F4DC07E0D4E9012118F8B9
:103B700005009047206A401C2062281EA5F101051F
:103B8000F3DC2046AFF300802078000602D5022047
:103B9000BDE8F0870120FBE701694A1C0261087853
:103BA000704700B58FB0CDE901310021059105497D
:103BB0007944CDE9031011466846FFF7C3FE0FB004
:103BC00000BD0000E5FFFFFF0A6802F8010B0A6074
:103BD00070474FF0000200B51346944696462039D0
:103BE00022BFA0E80C50A0E80C50B1F12001BFF4B6
:103BF000F7AF090728BFA0E80C5048BF0CC05DF81C
:103C000004EB890028BF40F8042B08BF704748BF69
:103C100020F8022B11F0804F18BF00F8012B7047DD
:103C2000754600F02BF8AE4605006946534620F075
:103C30000700854618B020B5FDF7FCFDBDE8204023
:103C40004FF000064FF000074FF000084FF0000B58
:103C500021F00701AC46ACE8C009ACE8C009ACE80B
:103C6000C009ACE8C0098D46704710B50446AFF3F3
:103C700000802046BDE81040FCF7A6BA0048704717
:103C80002401002021F00042A2F16052B2F5801F11
:103C900001F0004328BFD2F17F6C0BD95FEA001C12
:103CA00043EAC20242EB507018BF704728BF20F0B1
:103CB00001007047B2F5801FBCBF184670474FEA3D
:103CC000410C1CF5001F02D2084600F014BE70B56E
:103CD00000F02CFB00000089FFF7F6BF4FF000401A
:103CE000A0F580007047000010B591EA030F48BFAF
:103CF00083F0004300F18283841A71EB030C05D238
:103D0000121943EB0C03001B61EB0C01DFF824E1FB
:103D10004FEA1154A4EB135C1EEA430F18BF9EEA4E
:103D2000445F73D023EA0E03DCF1200E21EA045134
:103D300043F4801332D322FA0CFE10EB0E0023FA68
:103D40000CFE41EB0E01CCF1200E03FA0EFE10EB3F
:103D50000E0051F10001B1F5801FCCF1200E32D2DE
:103D600001EB045112FA0EF2BDE8104058BF704743
:103D7000401C38BF5FEA420218BF7047002814BFDA
:103D800020F0010041F100014FEA410313F5001F4B
:103D900038BF7047A1F1C04100F016BB012A43EBC8
:103DA0000302ACF1200CDCF11F0E32BF4FF0000E0D
:103DB00023FA0CF310EB030041EB0451B4EB115F59
:103DC000D0D0A1EB045101F5801149085FEA300021
:103DD00001EB04510ED350F1000038BF12FA0EFE71
:103DE00008D1BDE81040C9E7401C38BF5FEA420275
:103DF000CAD1C3E7BDE810404FEA410313F5001FE5
:103E000038BF7047A1F1C04100F0DEBA9EEA445FBE
:103E100008D011EA5E0FBDE8104004BF01F0004178
:103E200000207047BDE8104070B500F07FFA00BF79
:103E300064FBBE3E0000E0FF491058BFC1F14041A5
:103E40005B1058BFC3F140438B42EFF300807047D3
:103E50002DE9C04130B4DFF8A0C23CEA111418BF0C
:103E60003CEA131400F0EC8081EA03051CEA11140B
:103E700044EAD57418BF1CEA131500F0C780A4EB00
:103E800005044FF0004545EAC12145EAC32341EA54
:103E9000505143EA525304F17F74994204F50034BF
:103EA0004FEAC0204FEAC22208BF904200F09C8037
:103EB0004FEA13650FF24016765D4FEA134506FB95
:103EC00005F7C7F1807706FB07F74FEAD737A7FB5F
:103ED00003687642C8F58038A7FB06CE38BFA8F144
:103EE000010807FB08E64FF0000EA6FB028CE6FB7C
:103EF00003CEDCF1000CCEF1004E38BFAEF1010E66
:103F0000A6FB0C584FF000074FF00005E6FB0E87AC
:103F1000A1FB08C6A0FB07CE16EB0E0645F1000577
:103F2000E1FB076515F1E04E7EBFA4F580345FEA42
:103F300046066D4116F1800745F100054FEA172747
:103F40004FEA066647EA0567A6F1DE46B6F1805FEE
:103F50004FEA15251FD9384624F0010C05EBC47132
:103F6000BCF1FE6F01EB0C1102D8F0BCBDE8008182
:103F700024425CBF01F5801E9EEAC47F02D4F0BCDF
:103F8000BDE80081244238D4F0BCA1F1C041BDE8B5
:103F9000004100F019BA4FEAD22242EA43524FEAF6
:103FA000D323A7FB02864FEAD02040EA415007FB0B
:103FB00003661EEA0E0F4FEAD12105FB026658BFC9
:103FC000A6EB0056B6EB00564FEA520E4EEAC37E01
:103FD00018EB0E0E56EB530EBDD518EB02085E41E2
:103FE0007F1C55F10005B6E74FF480154FF0000730
:103FF0004FF000064FF00008ADE7F0BC4FF00000B6
:1040000001F1C04101F00041BDE8008111EA0C1F3F
:104010000CEA131500D00CE013EA0C1F00F0258009
:104020004FF00000F0BC81EA030101F00041BDE85F
:104030000081F0BCBDE8004181EA030100F0C4B991
:10404000F0BCBDE8004170B500F070F9097EFC3E9F
:1040500000F007B881EA03014FF0000001F00041D1
:10406000704781EA030100F0AFB9F0BCBDE8004140
:104070004FF0000021497047FFFDFBF9F7F5F4F21E
:10408000F0EEEDEBE9E8E6E4E3E1E0DEDDDBDAD8F3
:10409000D7D5D4D3D1D0CFCDCCCBCAC8C7C6C5C451
:1040A000C2C1C0BFBEBDBCBBBAB9B8B7B6B5B4B368
:1040B000B2B1B0AFAEADACABAAA9A8A8A7A6A5A453
:1040C000A3A3A2A1A09F9F9E9D9C9C9B9A99999817
:1040D0009797969595949393929191908F8F8E8EBA
:1040E0008D8C8C8B8B8A8989888887878685858447
:1040F00084838382828181800000FF070000F87F33
:104100004FEA41034FEA5353A3F58063D3F11E03F3
:10411000C8BFD3F1210C0CDD4FF0004242EAC122AE
:1041200042EA505232FA03FC8CEAE17CACEBE170DB
:104130007047102BC4BF0020704703F5787CBCF19A
:10414000FF3F04D06FF0004282EA2100704770B553
:1041500000F0ECF84992248000207047F2E700005C
:1041600051EA030C17D41CF5801F58BFBCF5801F03
:1041700000F10680994218BF704708BF904270470F
:1041800007D711F5801F58BF13F5801F19D4994226
:104190007047894270471CF5801F08D5BCF5801F09
:1041A000F7D58B4218BF704708BF824270474FF463
:1041B000001C1CEB410F38BF1CEB430F01D28B429C
:1041C000704770B500F0B2F8922449004FF00051EA
:1041D0004FF08053FFF730BEDFF848C170B51CEADE
:1041E000111E1EBF1CEA13159EEA0C0F95EA0C0F58
:1041F00000F06F8081EA030423EA4C134EEAD47E78
:1042000021EA4C1141F4801143F48013AE44A1FB28
:10421000024CA0FB0365AEF17F7E361955EB0C0511
:10422000A1FB034C4CF10003A0FB021C16EB0C0697
:10423000654153F10003094218BF46F0010613F42B
:10424000007F0BD14FEA03314FEA0530340341EAD6
:10425000155140EA16506FF003020AE04FEAC321FD
:104260004FEAC520F40241EA555140EA56506FF03A
:10427000020202EB2E4201EB025585EACE710AD012
:104280005FEA440C18BF24F0004450F1000041F1F3
:10429000000120EAD47040F2FE7C624500D270BD7D
:1042A000A84214BF4FF080444FF04044002E08BF96
:1042B0000024BEF1806FA8BFA1F1C041BDE87040ED
:1042C00080F282804FF0000001F1C04101F0004116
:1042D00070479EEA0C0F0CEA131518BF95EA0C0FF5
:1042E00006D04FF0000081EA030E0EF0004170BDD1
:1042F00000F01CF88900013E00F007B800F009B892
:104300004FEA430C5FEA5C5C08D081EA030100F0ED
:104310005BB84FEA410C5FEA5C5CF6D14FF00000FD
:10432000014970470000FF070000F87F0EF1020E00
:104330002EF0030E5EF8046B364205D4012A43EBDF
:10434000030515F5001F12D8012841EB010C1CF5DF
:10435000001F0CD80ED14FEAD17C15F5001F0CEBD5
:104360004C0C0CF1020C08BF4CEBD37C04E04FF07A
:10437000080C01E04FEAD37C0CEB4C0526FA05F65D
:1043800006F00706B6F1040C06D20EEB860CBDE86B
:1043900070404CF0010C6047DFE80CF0090B0202A2
:1043A0004FF000414FF00000A1F5002170BD19460B
:1043B0001046012851EB010418BFD4F5001484BF46
:1043C000002001F0004170BD0808A0F500114FEA7F
:1043D0003101704791EA030F10B581F000413FF5BC
:1043E0008BAC83F0004300F009B8000010B591EAEF
:1043F000030F48BF83F000433FF57EAC841A71EB96
:10440000030C07D212198CF0004C43EB0C03001B79
:1044100061EB0C01DFF8A4E14FEA1154A4EB135C4B
:104420001EEA430F18BF9EEA445F00F0B08023EA03
:104430006E03524221EA0451C3EB6E0338BF5B1E88
:10444000DCF1200E25D322FA0CFE10EB0E0043FA0D
:104450000CFE41EB0E01CCF1200E03FA0EFE10EB28
:104460000E0051F10001CCF1200E29D412FA0EF207
:1044700001EB0451BDE8104058BF7047401C1CBF01
:10448000B2F1004F704700280CBF491C20F001001A
:10449000704712EB020E43EB030218BF4FF0010E00
:1044A0004EEA4202ACF1200CDCF11E0E54D943FA64
:1044B0000CFE10EB0E0051F1FF31CCF11E0ED5D5E4
:1044C0000EF1010E12FA0EFE404141EB010101EB2B
:1044D000445C5FEA5C5C10D910EBDE7001EB0451C8
:1044E00038BFBEF1004FBDE8104018BF704700282C
:1044F0000CBF491C20F00100704730D24FEAD42C89
:1045000011F5001124F400641BD0B1FA81F20B3ACA
:10451000A41AA41ED2F12003914030FA03F31943E8
:10452000904001EBCC71002C01EB0451BDE8104030
:10453000A8BF704701F1C0414FF0000001F00041F9
:104540007047B0FA80F310FA03F100D110BDE41AFD
:10455000173C4805C90AE4E701EB045110BD4910B6
:1045600001EB0451BDE810404FEA300002E04FF08B
:10457000000170474A0008BF0042F8D0B2F5001FA2
:1045800028BF704701F000414FF0000070479EEADD
:10459000445F07D011EA5E0FBDE8104004BF002160
:1045A00000207047BDE8104070B5FFF7BFFE00BFA8
:1045B00040DFF63E83F00041104670470000E0FF08
:1045C00043004FEAD30C4FEA3C0C43401FBF400767
:1045D0000CF1605113F0FE4F70471CF0006F03D1D7
:1045E00000200CF0004170470CF0004343EA50708B
:1045F00010B540EACC0000F038F900BF000000928E
:104600004FEA0001FFF7E0BE4FF000414FF000001D
:10461000A1F500217047401058BFC0F1404049103B
:1046200058BFC1F140418142EFF300807047000064
:1046300041000B0ED3F19E0208D950F400034FEA5B
:10464000032323FA02F048BF4042704710B500F040
:104650000CF900BF49922480002070476FF000429F
:1046600082EA200070470000C10DD1F19E0206DBF6
:104670004FEA002343F0004323FA02F07047004260
:1046800007D54FEA4001B1F1FE4F02D24FF00000D2
:10469000704710B500F0E9F8499224800020704777
:1046A0006FEA20007047000010F0004148BF404210
:1046B000B0FA80F310FA03F2C3F19D030BD051EA74
:1046C000C35101EB1220530638BF704700F10100BF
:1046D00008BF20F001007047B0FA80F310FA03F22F
:1046E000C3F19D030AD0D90501EB1220530638BF50
:1046F000704700F1010008BF20F001007047000082
:1047000050EA010C00F113801CF5000F58BFBCF5F6
:10471000000F01D48842704707D710F5000F58BF2B
:1047200011F5000F15D488427047894270471CF577
:10473000000F04D5BCF5000FF7D5814270474FF04C
:10474000807C1CEB400F38BF1CEB410F01D2814233
:10475000704710B500F089F8922449004FF00050DE
:104760004FF08051FFF757BF4FF47F0C1CEAD01277
:104770001EBF1CEAD11392EA0C0F93EA0C0F00F053
:10478000478090EA010F48BF42F480724FF0004C1E
:104790004CEA00204CEA012102EB0302A0FB0113CA
:1047A000A2F50002002918BF43F001035B0028BFF7
:1047B0004FEA330342EB22425FEA132C4CEBC25028
:1047C0002EBFBCEB436FB2F57C0F70474FEA036C12
:1047D000BCF1004F08BF20F00100B2F57C0F38BFDC
:1047E00070470BD582F0FF0212F5803FC8BF7047BB
:1047F00000F1C040D8BF00F00040704700F5000C49
:104800005FEA4C0C48BF7047B0F1C04000F073B88D
:1048100090EA010F0CEAD11348BF42F4807262455E
:1048200038BF634504D280EA010000F000407047C1
:1048300010B500F01AF800BF8900013E00F007B87B
:1048400000F009B85FEA410C5FEA1C6C08D080EA0E
:10485000010000F050B85FEA400C5FEA1C6CF6D132
:104860004FF00040A0F5800070470EF1020E2EF0D0
:10487000030E5EF8044B244204D44FEA4102B2F125
:104880007F4F11D84FEA4003B3F17F4F0CD80ED1C0
:104890004FEAD07CB2F17F4F0CEB4C0C0CF1020CC8
:1048A00008BF4CEBD17C04E04FF0080C01E04FEA6C
:1048B000D17C0CEB4C0324FA03F404F00704B4F1AC
:1048C000040C06D20EEB840CBDE810404CF0010C39
:1048D0006047DFE80CF0070802024FF00040A0F547
:1048E000800010BD0846420018BFD2F1807288BF18
:1048F00000F0004010BDFF2141EAD050C0057047D4
:1049000051EA000C00F113801CF5000F58BFBCF5F4
:10491000000F01D48142704707D711F5000F58BF2F
:1049200010F5000F15D481427047894270471CF57D
:10493000000F04D5BCF5000FF7D5884270474FF043
:10494000807C1CEB410F38BF1CEB400F01D288422A
:10495000704780EA010081EA000180EA0100FFF768
:10496000F8BE00008449000800000020A4000000F8
:104970006C010008284A0008A4000020E40600009A
:104980008801000800000000010000000000000095
:104990000000000000000000000000000000000017
:1049A000B80B280000000000577274623A303030B3
:1049B000302C54656D703A30302E30430D0A0000B3
:1049C00000000000000000005761726E696E670011
:1049D00000000000000000000000000000000000D7
:1049E0000000000000A24A040000000000000000D7
:1049F000010203040607080900000000000000008F
:104A00000000000000000000000001020304010299
:104A1000030406070809020406080000000000005D
:084A200000000000000000008E
:0400000508000131BD
:00000001FF
